{
  "_format": "hh-sol-artifact-1",
  "contractName": "Protocol176",
  "sourceName": "contracts/Protocol176.sol",
  "abi": [
    {
      "inputs": [],
      "stateMutability": "nonpayable",
      "type": "constructor"
    },
    {
      "inputs": [
        {
          "internalType": "address",
          "name": "spender",
          "type": "address"
        },
        {
          "internalType": "uint256",
          "name": "allowance",
          "type": "uint256"
        },
        {
          "internalType": "uint256",
          "name": "needed",
          "type": "uint256"
        }
      ],
      "name": "ERC20InsufficientAllowance",
      "type": "error"
    },
    {
      "inputs": [
        {
          "internalType": "address",
          "name": "sender",
          "type": "address"
        },
        {
          "internalType": "uint256",
          "name": "balance",
          "type": "uint256"
        },
        {
          "internalType": "uint256",
          "name": "needed",
          "type": "uint256"
        }
      ],
      "name": "ERC20InsufficientBalance",
      "type": "error"
    },
    {
      "inputs": [
        {
          "internalType": "address",
          "name": "approver",
          "type": "address"
        }
      ],
      "name": "ERC20InvalidApprover",
      "type": "error"
    },
    {
      "inputs": [
        {
          "internalType": "address",
          "name": "receiver",
          "type": "address"
        }
      ],
      "name": "ERC20InvalidReceiver",
      "type": "error"
    },
    {
      "inputs": [
        {
          "internalType": "address",
          "name": "sender",
          "type": "address"
        }
      ],
      "name": "ERC20InvalidSender",
      "type": "error"
    },
    {
      "inputs": [
        {
          "internalType": "address",
          "name": "spender",
          "type": "address"
        }
      ],
      "name": "ERC20InvalidSpender",
      "type": "error"
    },
    {
      "inputs": [
        {
          "internalType": "address",
          "name": "owner",
          "type": "address"
        }
      ],
      "name": "OwnableInvalidOwner",
      "type": "error"
    },
    {
      "inputs": [
        {
          "internalType": "address",
          "name": "account",
          "type": "address"
        }
      ],
      "name": "OwnableUnauthorizedAccount",
      "type": "error"
    },
    {
      "anonymous": false,
      "inputs": [
        {
          "indexed": true,
          "internalType": "address",
          "name": "owner",
          "type": "address"
        },
        {
          "indexed": true,
          "internalType": "address",
          "name": "spender",
          "type": "address"
        },
        {
          "indexed": false,
          "internalType": "uint256",
          "name": "value",
          "type": "uint256"
        }
      ],
      "name": "Approval",
      "type": "event"
    },
    {
      "anonymous": false,
      "inputs": [
        {
          "indexed": true,
          "internalType": "address",
          "name": "previousOwner",
          "type": "address"
        },
        {
          "indexed": true,
          "internalType": "address",
          "name": "newOwner",
          "type": "address"
        }
      ],
      "name": "OwnershipTransferred",
      "type": "event"
    },
    {
      "anonymous": false,
      "inputs": [
        {
          "indexed": true,
          "internalType": "address",
          "name": "from",
          "type": "address"
        },
        {
          "indexed": true,
          "internalType": "address",
          "name": "to",
          "type": "address"
        },
        {
          "indexed": false,
          "internalType": "uint256",
          "name": "value",
          "type": "uint256"
        }
      ],
      "name": "Transfer",
      "type": "event"
    },
    {
      "inputs": [],
      "name": "BURN_RATE",
      "outputs": [
        {
          "internalType": "uint256",
          "name": "",
          "type": "uint256"
        }
      ],
      "stateMutability": "view",
      "type": "function"
    },
    {
      "inputs": [
        {
          "internalType": "address",
          "name": "owner",
          "type": "address"
        },
        {
          "internalType": "address",
          "name": "spender",
          "type": "address"
        }
      ],
      "name": "allowance",
      "outputs": [
        {
          "internalType": "uint256",
          "name": "",
          "type": "uint256"
        }
      ],
      "stateMutability": "view",
      "type": "function"
    },
    {
      "inputs": [
        {
          "internalType": "address",
          "name": "spender",
          "type": "address"
        },
        {
          "internalType": "uint256",
          "name": "value",
          "type": "uint256"
        }
      ],
      "name": "approve",
      "outputs": [
        {
          "internalType": "bool",
          "name": "",
          "type": "bool"
        }
      ],
      "stateMutability": "nonpayable",
      "type": "function"
    },
    {
      "inputs": [
        {
          "internalType": "address",
          "name": "account",
          "type": "address"
        }
      ],
      "name": "balanceOf",
      "outputs": [
        {
          "internalType": "uint256",
          "name": "",
          "type": "uint256"
        }
      ],
      "stateMutability": "view",
      "type": "function"
    },
    {
      "inputs": [],
      "name": "decimals",
      "outputs": [
        {
          "internalType": "uint8",
          "name": "",
          "type": "uint8"
        }
      ],
      "stateMutability": "view",
      "type": "function"
    },
    {
      "inputs": [],
      "name": "name",
      "outputs": [
        {
          "internalType": "string",
          "name": "",
          "type": "string"
        }
      ],
      "stateMutability": "view",
      "type": "function"
    },
    {
      "inputs": [],
      "name": "owner",
      "outputs": [
        {
          "internalType": "address",
          "name": "",
          "type": "address"
        }
      ],
      "stateMutability": "view",
      "type": "function"
    },
    {
      "inputs": [],
      "name": "renounceOwnership",
      "outputs": [],
      "stateMutability": "nonpayable",
      "type": "function"
    },
    {
      "inputs": [],
      "name": "symbol",
      "outputs": [
        {
          "internalType": "string",
          "name": "",
          "type": "string"
        }
      ],
      "stateMutability": "view",
      "type": "function"
    },
    {
      "inputs": [],
      "name": "totalSupply",
      "outputs": [
        {
          "internalType": "uint256",
          "name": "",
          "type": "uint256"
        }
      ],
      "stateMutability": "view",
      "type": "function"
    },
    {
      "inputs": [
        {
          "internalType": "address",
          "name": "to",
          "type": "address"
        },
        {
          "internalType": "uint256",
          "name": "value",
          "type": "uint256"
        }
      ],
      "name": "transfer",
      "outputs": [
        {
          "internalType": "bool",
          "name": "",
          "type": "bool"
        }
      ],
      "stateMutability": "nonpayable",
      "type": "function"
    },
    {
      "inputs": [
        {
          "internalType": "address",
          "name": "from",
          "type": "address"
        },
        {
          "internalType": "address",
          "name": "to",
          "type": "address"
        },
        {
          "internalType": "uint256",
          "name": "value",
          "type": "uint256"
        }
      ],
      "name": "transferFrom",
      "outputs": [
        {
          "internalType": "bool",
          "name": "",
          "type": "bool"
        }
      ],
      "stateMutability": "nonpayable",
      "type": "function"
    },
    {
      "inputs": [
        {
          "internalType": "address",
          "name": "newOwner",
          "type": "address"
        }
      ],
      "name": "transferOwnership",
      "outputs": [],
      "stateMutability": "nonpayable",
      "type": "function"
    }
  ],
  "bytecode": "0x60806040523480156200001157600080fd5b50336040518060400160405280600a81526020017f4d65746150546f6b656e000000000000000000000000000000000000000000008152506040518060400160405280600381526020017f5442420000000000000000000000000000000000000000000000000000000000815250816003908162000090919062000830565b508060049081620000a2919062000830565b505050600073ffffffffffffffffffffffffffffffffffffffff168173ffffffffffffffffffffffffffffffffffffffff16036200011a5760006040517f1e4fbdf70000000000000000000000000000000000000000000000000000000081526004016200011191906200095c565b60405180910390fd5b6200012b816200015060201b60201c565b506200014a336b05afd67f2dc0e1b2e00000006200021660201b60201c565b62000b3b565b6000600560009054906101000a900473ffffffffffffffffffffffffffffffffffffffff16905081600560006101000a81548173ffffffffffffffffffffffffffffffffffffffff021916908373ffffffffffffffffffffffffffffffffffffffff1602179055508173ffffffffffffffffffffffffffffffffffffffff168173ffffffffffffffffffffffffffffffffffffffff167f8be0079c531659141344cd1fd0a4f28419497f9722a3daafe3b4186f6b6457e060405160405180910390a35050565b600073ffffffffffffffffffffffffffffffffffffffff168273ffffffffffffffffffffffffffffffffffffffff16036200028b5760006040517fec442f050000000000000000000000000000000000000000000000000000000081526004016200028291906200095c565b60405180910390fd5b6200029f60008383620002a360201b60201c565b5050565b600073ffffffffffffffffffffffffffffffffffffffff168373ffffffffffffffffffffffffffffffffffffffff1614806200030b5750600073ffffffffffffffffffffffffffffffffffffffff168273ffffffffffffffffffffffffffffffffffffffff16145b156200032a57620003248383836200038660201b60201c565b62000381565b600060646002836200033d9190620009a8565b62000349919062000a22565b90506200035f846000836200038660201b60201c565b6200037f8484838562000373919062000a5a565b6200038660201b60201c565b505b505050565b600073ffffffffffffffffffffffffffffffffffffffff168373ffffffffffffffffffffffffffffffffffffffff1603620003dc578060026000828254620003cf919062000a95565b92505081905550620004b2565b60008060008573ffffffffffffffffffffffffffffffffffffffff1673ffffffffffffffffffffffffffffffffffffffff168152602001908152602001600020549050818110156200046b578381836040517fe450d38c000000000000000000000000000000000000000000000000000000008152600401620004629392919062000ae1565b60405180910390fd5b8181036000808673ffffffffffffffffffffffffffffffffffffffff1673ffffffffffffffffffffffffffffffffffffffff16815260200190815260200160002081905550505b600073ffffffffffffffffffffffffffffffffffffffff168273ffffffffffffffffffffffffffffffffffffffff1603620004fd57806002600082825403925050819055506200054a565b806000808473ffffffffffffffffffffffffffffffffffffffff1673ffffffffffffffffffffffffffffffffffffffff168152602001908152602001600020600082825401925050819055505b8173ffffffffffffffffffffffffffffffffffffffff168373ffffffffffffffffffffffffffffffffffffffff167fddf252ad1be2c89b69c2b068fc378daa952ba7f163c4a11628f55a4df523b3ef83604051620005a9919062000b1e565b60405180910390a3505050565b600081519050919050565b7f4e487b7100000000000000000000000000000000000000000000000000000000600052604160045260246000fd5b7f4e487b7100000000000000000000000000000000000000000000000000000000600052602260045260246000fd5b600060028204905060018216806200063857607f821691505b6020821081036200064e576200064d620005f0565b5b50919050565b60008190508160005260206000209050919050565b60006020601f8301049050919050565b600082821b905092915050565b600060088302620006b87fffffffffffffffffffffffffffffffffffffffffffffffffffffffffffffffff8262000679565b620006c4868362000679565b95508019841693508086168417925050509392505050565b6000819050919050565b6000819050919050565b6000620007116200070b6200070584620006dc565b620006e6565b620006dc565b9050919050565b6000819050919050565b6200072d83620006f0565b620007456200073c8262000718565b84845462000686565b825550505050565b600090565b6200075c6200074d565b6200076981848462000722565b505050565b5b8181101562000791576200078560008262000752565b6001810190506200076f565b5050565b601f821115620007e057620007aa8162000654565b620007b58462000669565b81016020851015620007c5578190505b620007dd620007d48562000669565b8301826200076e565b50505b505050565b600082821c905092915050565b60006200080560001984600802620007e5565b1980831691505092915050565b6000620008208383620007f2565b9150826002028217905092915050565b6200083b82620005b6565b67ffffffffffffffff811115620008575762000856620005c1565b5b6200086382546200061f565b6200087082828562000795565b600060209050601f831160018114620008a8576000841562000893578287015190505b6200089f858262000812565b8655506200090f565b601f198416620008b88662000654565b60005b82811015620008e257848901518255600182019150602085019450602081019050620008bb565b86831015620009025784890151620008fe601f891682620007f2565b8355505b6001600288020188555050505b505050505050565b600073ffffffffffffffffffffffffffffffffffffffff82169050919050565b6000620009448262000917565b9050919050565b620009568162000937565b82525050565b60006020820190506200097360008301846200094b565b92915050565b7f4e487b7100000000000000000000000000000000000000000000000000000000600052601160045260246000fd5b6000620009b582620006dc565b9150620009c283620006dc565b9250828202620009d281620006dc565b91508282048414831517620009ec57620009eb62000979565b5b5092915050565b7f4e487b7100000000000000000000000000000000000000000000000000000000600052601260045260246000fd5b600062000a2f82620006dc565b915062000a3c83620006dc565b92508262000a4f5762000a4e620009f3565b5b828204905092915050565b600062000a6782620006dc565b915062000a7483620006dc565b925082820390508181111562000a8f5762000a8e62000979565b5b92915050565b600062000aa282620006dc565b915062000aaf83620006dc565b925082820190508082111562000aca5762000ac962000979565b5b92915050565b62000adb81620006dc565b82525050565b600060608201905062000af860008301866200094b565b62000b07602083018562000ad0565b62000b16604083018462000ad0565b949350505050565b600060208201905062000b35600083018462000ad0565b92915050565b6112a28062000b4b6000396000f3fe608060405234801561001057600080fd5b50600436106100cf5760003560e01c8063715018a61161008c578063a9059cbb11610066578063a9059cbb14610204578063dd62ed3e14610234578063f2fde38b14610264578063f846a88514610280576100cf565b8063715018a6146101be5780638da5cb5b146101c857806395d89b41146101e6576100cf565b806306fdde03146100d4578063095ea7b3146100f257806318160ddd1461012257806323b872dd14610140578063313ce5671461017057806370a082311461018e575b600080fd5b6100dc61029e565b6040516100e99190610e20565b60405180910390f35b61010c60048036038101906101079190610edb565b610330565b6040516101199190610f36565b60405180910390f35b61012a610353565b6040516101379190610f60565b60405180910390f35b61015a60048036038101906101559190610f7b565b61035d565b6040516101679190610f36565b60405180910390f35b61017861038c565b6040516101859190610fea565b60405180910390f35b6101a860048036038101906101a39190611005565b610395565b6040516101b59190610f60565b60405180910390f35b6101c66103dd565b005b6101d06103f1565b6040516101dd9190611041565b60405180910390f35b6101ee61041b565b6040516101fb9190610e20565b60405180910390f35b61021e60048036038101906102199190610edb565b6104ad565b60405161022b9190610f36565b60405180910390f35b61024e6004803603810190610249919061105c565b6104d0565b60405161025b9190610f60565b60405180910390f35b61027e60048036038101906102799190611005565b610557565b005b6102886105dd565b6040516102959190610f60565b60405180910390f35b6060600380546102ad906110cb565b80601f01602080910402602001604051908101604052809291908181526020018280546102d9906110cb565b80156103265780601f106102fb57610100808354040283529160200191610326565b820191906000526020600020905b81548152906001019060200180831161030957829003601f168201915b5050505050905090565b60008061033b6105e2565b90506103488185856105ea565b600191505092915050565b6000600254905090565b6000806103686105e2565b90506103758582856105fc565b610380858585610691565b60019150509392505050565b60006012905090565b60008060008373ffffffffffffffffffffffffffffffffffffffff1673ffffffffffffffffffffffffffffffffffffffff168152602001908152602001600020549050919050565b6103e5610785565b6103ef600061080c565b565b6000600560009054906101000a900473ffffffffffffffffffffffffffffffffffffffff16905090565b60606004805461042a906110cb565b80601f0160208091040260200160405190810160405280929190818152602001828054610456906110cb565b80156104a35780601f10610478576101008083540402835291602001916104a3565b820191906000526020600020905b81548152906001019060200180831161048657829003601f168201915b5050505050905090565b6000806104b86105e2565b90506104c5818585610691565b600191505092915050565b6000600160008473ffffffffffffffffffffffffffffffffffffffff1673ffffffffffffffffffffffffffffffffffffffff16815260200190815260200160002060008373ffffffffffffffffffffffffffffffffffffffff1673ffffffffffffffffffffffffffffffffffffffff16815260200190815260200160002054905092915050565b61055f610785565b600073ffffffffffffffffffffffffffffffffffffffff168173ffffffffffffffffffffffffffffffffffffffff16036105d15760006040517f1e4fbdf70000000000000000000000000000000000000000000000000000000081526004016105c89190611041565b60405180910390fd5b6105da8161080c565b50565b600281565b600033905090565b6105f783838360016108d2565b505050565b600061060884846104d0565b90507fffffffffffffffffffffffffffffffffffffffffffffffffffffffffffffffff81101561068b578181101561067b578281836040517ffb8f41b2000000000000000000000000000000000000000000000000000000008152600401610672939291906110fc565b60405180910390fd5b61068a848484840360006108d2565b5b50505050565b600073ffffffffffffffffffffffffffffffffffffffff168373ffffffffffffffffffffffffffffffffffffffff16036107035760006040517f96c6fd1e0000000000000000000000000000000000000000000000000000000081526004016106fa9190611041565b60405180910390fd5b600073ffffffffffffffffffffffffffffffffffffffff168273ffffffffffffffffffffffffffffffffffffffff16036107755760006040517fec442f0500000000000000000000000000000000000000000000000000000000815260040161076c9190611041565b60405180910390fd5b610780838383610aa9565b505050565b61078d6105e2565b73ffffffffffffffffffffffffffffffffffffffff166107ab6103f1565b73ffffffffffffffffffffffffffffffffffffffff161461080a576107ce6105e2565b6040517f118cdaa70000000000000000000000000000000000000000000000000000000081526004016108019190611041565b60405180910390fd5b565b6000600560009054906101000a900473ffffffffffffffffffffffffffffffffffffffff16905081600560006101000a81548173ffffffffffffffffffffffffffffffffffffffff021916908373ffffffffffffffffffffffffffffffffffffffff1602179055508173ffffffffffffffffffffffffffffffffffffffff168173ffffffffffffffffffffffffffffffffffffffff167f8be0079c531659141344cd1fd0a4f28419497f9722a3daafe3b4186f6b6457e060405160405180910390a35050565b600073ffffffffffffffffffffffffffffffffffffffff168473ffffffffffffffffffffffffffffffffffffffff16036109445760006040517fe602df0500000000000000000000000000000000000000000000000000000000815260040161093b9190611041565b60405180910390fd5b600073ffffffffffffffffffffffffffffffffffffffff168373ffffffffffffffffffffffffffffffffffffffff16036109b65760006040517f94280d620000000000000000000000000000000000000000000000000000000081526004016109ad9190611041565b60405180910390fd5b81600160008673ffffffffffffffffffffffffffffffffffffffff1673ffffffffffffffffffffffffffffffffffffffff16815260200190815260200160002060008573ffffffffffffffffffffffffffffffffffffffff1673ffffffffffffffffffffffffffffffffffffffff168152602001908152602001600020819055508015610aa3578273ffffffffffffffffffffffffffffffffffffffff168473ffffffffffffffffffffffffffffffffffffffff167f8c5be1e5ebec7d5bd14f71427d1e84f3dd0314c0f7b2291e5b200ac8c7c3b92584604051610a9a9190610f60565b60405180910390a35b50505050565b600073ffffffffffffffffffffffffffffffffffffffff168373ffffffffffffffffffffffffffffffffffffffff161480610b105750600073ffffffffffffffffffffffffffffffffffffffff168273ffffffffffffffffffffffffffffffffffffffff16145b15610b2557610b20838383610b6b565b610b66565b60006064600283610b369190611162565b610b4091906111d3565b9050610b4e84600083610b6b565b610b6484848385610b5f9190611204565b610b6b565b505b505050565b600073ffffffffffffffffffffffffffffffffffffffff168373ffffffffffffffffffffffffffffffffffffffff1603610bbd578060026000828254610bb19190611238565b92505081905550610c90565b60008060008573ffffffffffffffffffffffffffffffffffffffff1673ffffffffffffffffffffffffffffffffffffffff16815260200190815260200160002054905081811015610c49578381836040517fe450d38c000000000000000000000000000000000000000000000000000000008152600401610c40939291906110fc565b60405180910390fd5b8181036000808673ffffffffffffffffffffffffffffffffffffffff1673ffffffffffffffffffffffffffffffffffffffff16815260200190815260200160002081905550505b600073ffffffffffffffffffffffffffffffffffffffff168273ffffffffffffffffffffffffffffffffffffffff1603610cd95780600260008282540392505081905550610d26565b806000808473ffffffffffffffffffffffffffffffffffffffff1673ffffffffffffffffffffffffffffffffffffffff168152602001908152602001600020600082825401925050819055505b8173ffffffffffffffffffffffffffffffffffffffff168373ffffffffffffffffffffffffffffffffffffffff167fddf252ad1be2c89b69c2b068fc378daa952ba7f163c4a11628f55a4df523b3ef83604051610d839190610f60565b60405180910390a3505050565b600081519050919050565b600082825260208201905092915050565b60005b83811015610dca578082015181840152602081019050610daf565b60008484015250505050565b6000601f19601f8301169050919050565b6000610df282610d90565b610dfc8185610d9b565b9350610e0c818560208601610dac565b610e1581610dd6565b840191505092915050565b60006020820190508181036000830152610e3a8184610de7565b905092915050565b600080fd5b600073ffffffffffffffffffffffffffffffffffffffff82169050919050565b6000610e7282610e47565b9050919050565b610e8281610e67565b8114610e8d57600080fd5b50565b600081359050610e9f81610e79565b92915050565b6000819050919050565b610eb881610ea5565b8114610ec357600080fd5b50565b600081359050610ed581610eaf565b92915050565b60008060408385031215610ef257610ef1610e42565b5b6000610f0085828601610e90565b9250506020610f1185828601610ec6565b9150509250929050565b60008115159050919050565b610f3081610f1b565b82525050565b6000602082019050610f4b6000830184610f27565b92915050565b610f5a81610ea5565b82525050565b6000602082019050610f756000830184610f51565b92915050565b600080600060608486031215610f9457610f93610e42565b5b6000610fa286828701610e90565b9350506020610fb386828701610e90565b9250506040610fc486828701610ec6565b9150509250925092565b600060ff82169050919050565b610fe481610fce565b82525050565b6000602082019050610fff6000830184610fdb565b92915050565b60006020828403121561101b5761101a610e42565b5b600061102984828501610e90565b91505092915050565b61103b81610e67565b82525050565b60006020820190506110566000830184611032565b92915050565b6000806040838503121561107357611072610e42565b5b600061108185828601610e90565b925050602061109285828601610e90565b9150509250929050565b7f4e487b7100000000000000000000000000000000000000000000000000000000600052602260045260246000fd5b600060028204905060018216806110e357607f821691505b6020821081036110f6576110f561109c565b5b50919050565b60006060820190506111116000830186611032565b61111e6020830185610f51565b61112b6040830184610f51565b949350505050565b7f4e487b7100000000000000000000000000000000000000000000000000000000600052601160045260246000fd5b600061116d82610ea5565b915061117883610ea5565b925082820261118681610ea5565b9150828204841483151761119d5761119c611133565b5b5092915050565b7f4e487b7100000000000000000000000000000000000000000000000000000000600052601260045260246000fd5b60006111de82610ea5565b91506111e983610ea5565b9250826111f9576111f86111a4565b5b828204905092915050565b600061120f82610ea5565b915061121a83610ea5565b925082820390508181111561123257611231611133565b5b92915050565b600061124382610ea5565b915061124e83610ea5565b925082820190508082111561126657611265611133565b5b9291505056fea2646970667358221220d6a9c67fcfa48f68e02b28dc183e55f94d6846ae286bc882756597a61cf4e2a464736f6c63430008140033",
  "linkReferences": {},
  "deployedLinkReferences": {}
}